{
  "_format": "hh-sol-artifact-1",
  "contractName": "DirectAward",
  "sourceName": "contracts/DirectAward.sol",
  "abi": [
    {
      "inputs": [],
      "stateMutability": "payable",
      "type": "constructor"
    },
    {
      "anonymous": false,
      "inputs": [
        {
          "indexed": false,
          "internalType": "address",
          "name": "",
          "type": "address"
        },
        {
          "indexed": false,
          "internalType": "uint256",
          "name": "",
          "type": "uint256"
        }
      ],
      "name": "Received",
      "type": "event"
    },
    {
      "inputs": [],
      "name": "checkBalance",
      "outputs": [
        {
          "internalType": "uint256",
          "name": "",
          "type": "uint256"
        }
      ],
      "stateMutability": "view",
      "type": "function"
    },
    {
      "inputs": [],
      "name": "destroy",
      "outputs": [],
      "stateMutability": "nonpayable",
      "type": "function"
    },
    {
      "inputs": [],
      "name": "pay",
      "outputs": [],
      "stateMutability": "payable",
      "type": "function"
    },
    {
      "inputs": [
        {
          "internalType": "address",
          "name": "_to",
          "type": "address"
        }
      ],
      "name": "transferEth",
      "outputs": [
        {
          "internalType": "bool",
          "name": "",
          "type": "bool"
        }
      ],
      "stateMutability": "payable",
      "type": "function"
    },
    {
      "inputs": [
        {
          "internalType": "address[]",
          "name": "_tos",
          "type": "address[]"
        },
        {
          "internalType": "uint256[]",
          "name": "_values",
          "type": "uint256[]"
        }
      ],
      "name": "transferEths",
      "outputs": [
        {
          "internalType": "bool",
          "name": "",
          "type": "bool"
        }
      ],
      "stateMutability": "payable",
      "type": "function"
    },
    {
      "inputs": [
        {
          "internalType": "address[]",
          "name": "_tos",
          "type": "address[]"
        }
      ],
      "name": "transferEthsAvg",
      "outputs": [
        {
          "internalType": "bool",
          "name": "",
          "type": "bool"
        }
      ],
      "stateMutability": "payable",
      "type": "function"
    },
    {
      "inputs": [
        {
          "internalType": "address",
          "name": "_from",
          "type": "address"
        },
        {
          "internalType": "address",
          "name": "_contractAdd",
          "type": "address"
        },
        {
          "internalType": "address",
          "name": "_to",
          "type": "address"
        },
        {
          "internalType": "uint256",
          "name": "_tokenId",
          "type": "uint256"
        },
        {
          "internalType": "uint256",
          "name": "_num",
          "type": "uint256"
        }
      ],
      "name": "transferToken1155",
      "outputs": [
        {
          "internalType": "bool",
          "name": "",
          "type": "bool"
        }
      ],
      "stateMutability": "nonpayable",
      "type": "function"
    },
    {
      "inputs": [
        {
          "internalType": "address",
          "name": "_from",
          "type": "address"
        },
        {
          "internalType": "address",
          "name": "_contractAdd",
          "type": "address"
        },
        {
          "internalType": "address",
          "name": "_to",
          "type": "address"
        },
        {
          "internalType": "uint256[]",
          "name": "_tokenIds",
          "type": "uint256[]"
        },
        {
          "internalType": "uint256[]",
          "name": "_nums",
          "type": "uint256[]"
        }
      ],
      "name": "transferTokenBatch1155",
      "outputs": [
        {
          "internalType": "bool",
          "name": "",
          "type": "bool"
        }
      ],
      "stateMutability": "nonpayable",
      "type": "function"
    },
    {
      "inputs": [
        {
          "internalType": "address",
          "name": "_from",
          "type": "address"
        },
        {
          "internalType": "address",
          "name": "_constractAdd",
          "type": "address"
        },
        {
          "internalType": "address",
          "name": "_to",
          "type": "address"
        },
        {
          "internalType": "uint256",
          "name": "_tokenId",
          "type": "uint256"
        }
      ],
      "name": "transferTokenOne",
      "outputs": [
        {
          "internalType": "bool",
          "name": "",
          "type": "bool"
        }
      ],
      "stateMutability": "nonpayable",
      "type": "function"
    },
    {
      "inputs": [
        {
          "internalType": "address",
          "name": "from",
          "type": "address"
        },
        {
          "internalType": "address",
          "name": "_constractAdd",
          "type": "address"
        },
        {
          "internalType": "address[]",
          "name": "_tos",
          "type": "address[]"
        },
        {
          "internalType": "uint256[]",
          "name": "_values",
          "type": "uint256[]"
        }
      ],
      "name": "transferTokens",
      "outputs": [
        {
          "internalType": "bool",
          "name": "",
          "type": "bool"
        }
      ],
      "stateMutability": "nonpayable",
      "type": "function"
    },
    {
      "inputs": [
        {
          "internalType": "address",
          "name": "from",
          "type": "address"
        },
        {
          "internalType": "address",
          "name": "_constractAdd",
          "type": "address"
        },
        {
          "internalType": "address[]",
          "name": "_tos",
          "type": "address[]"
        },
        {
          "internalType": "uint256",
          "name": "_v",
          "type": "uint256"
        }
      ],
      "name": "transferTokensAvg",
      "outputs": [
        {
          "internalType": "bool",
          "name": "",
          "type": "bool"
        }
      ],
      "stateMutability": "nonpayable",
      "type": "function"
    },
    {
      "stateMutability": "payable",
      "type": "receive"
    }
  ],
  "bytecode": "0x6080604052336000806101000a81548173ffffffffffffffffffffffffffffffffffffffff021916908373ffffffffffffffffffffffffffffffffffffffff160217905550612169806100536000396000f3fe6080604052600436106100a05760003560e01c80637617e421116100645780637617e421146101c957806383197ef0146101f9578063a872953a14610210578063a934a6bb1461024d578063c71daccb1461028a578063ed1d6d9f146102b5576100e0565b80630b2916d3146100e55780631b9265b81461011557806330df47af1461011f5780636214bf031461014f5780636706b08e1461018c576100e0565b366100e0577f88a5966d370b9919b20f3e2c13ff65706f196a4e32cc2c12bf57088f8852587433346040516100d6929190611d96565b60405180910390a1005b600080fd5b6100ff60048036038101906100fa9190611a78565b6102f2565b60405161010c9190611dbf565b60405180910390f35b61011d610575565b005b6101396004803603810190610134919061177f565b610577565b6040516101469190611dbf565b60405180910390f35b34801561015b57600080fd5b50610176600480360381019061017191906117a8565b61069f565b6040516101839190611dbf565b60405180910390f35b34801561019857600080fd5b506101b360048036038101906101ae91906119bc565b61087b565b6040516101c09190611dbf565b60405180910390f35b6101e360048036038101906101de9190611a37565b610b8f565b6040516101f09190611dbf565b60405180910390f35b34801561020557600080fd5b5061020e610d6a565b005b34801561021c57600080fd5b5061023760048036038101906102329190611929565b610e11565b6040516102449190611dbf565b60405180910390f35b34801561025957600080fd5b50610274600480360381019061026f91906118b2565b6111c9565b6040516102819190611dbf565b60405180910390f35b34801561029657600080fd5b5061029f6113a5565b6040516102ac9190611e1a565b60405180910390f35b3480156102c157600080fd5b506102dc60048036038101906102d7919061184f565b6113ad565b6040516102e99190611dbf565b60405180910390f35b60008060009054906101000a900473ffffffffffffffffffffffffffffffffffffffff1673ffffffffffffffffffffffffffffffffffffffff163373ffffffffffffffffffffffffffffffffffffffff1614610383576040517f08c379a000000000000000000000000000000000000000000000000000000000815260040161037a90611dfa565b60405180910390fd5b600083511161039157600080fd5b815183511461039f57600080fd5b60005b83518163ffffffff16101561056a57600073ffffffffffffffffffffffffffffffffffffffff16848263ffffffff1681518110610408577f4e487b7100000000000000000000000000000000000000000000000000000000600052603260045260246000fd5b602002602001015173ffffffffffffffffffffffffffffffffffffffff16141561043157600080fd5b6000838263ffffffff1681518110610472577f4e487b7100000000000000000000000000000000000000000000000000000000600052603260045260246000fd5b60200260200101511161048457600080fd5b838163ffffffff16815181106104c3577f4e487b7100000000000000000000000000000000000000000000000000000000600052603260045260246000fd5b602002602001015173ffffffffffffffffffffffffffffffffffffffff166108fc848363ffffffff1681518110610523577f4e487b7100000000000000000000000000000000000000000000000000000000600052603260045260246000fd5b60200260200101519081150290604051600060405180830381858888f19350505050158015610556573d6000803e3d6000fd5b50808061056290612034565b9150506103a2565b506001905092915050565b565b60008060009054906101000a900473ffffffffffffffffffffffffffffffffffffffff1673ffffffffffffffffffffffffffffffffffffffff163373ffffffffffffffffffffffffffffffffffffffff1614610608576040517f08c379a00000000000000000000000000000000000000000000000000000000081526004016105ff90611dfa565b60405180910390fd5b600073ffffffffffffffffffffffffffffffffffffffff168273ffffffffffffffffffffffffffffffffffffffff16141561064257600080fd5b6000341161064f57600080fd5b8173ffffffffffffffffffffffffffffffffffffffff166108fc349081150290604051600060405180830381858888f19350505050158015610695573d6000803e3d6000fd5b5060019050919050565b600085600073ffffffffffffffffffffffffffffffffffffffff168173ffffffffffffffffffffffffffffffffffffffff161415610712576040517f08c379a000000000000000000000000000000000000000000000000000000000815260040161070990611dda565b60405180910390fd5b85600073ffffffffffffffffffffffffffffffffffffffff168173ffffffffffffffffffffffffffffffffffffffff161415610783576040517f08c379a000000000000000000000000000000000000000000000000000000000815260040161077a90611dda565b60405180910390fd5b85600073ffffffffffffffffffffffffffffffffffffffff168173ffffffffffffffffffffffffffffffffffffffff1614156107f4576040517f08c379a00000000000000000000000000000000000000000000000000000000081526004016107eb90611dda565b60405180910390fd5b60008890508073ffffffffffffffffffffffffffffffffffffffff16632eb2c2d68b8a8a8a6040518563ffffffff1660e01b81526004016108389493929190611ca1565b600060405180830381600087803b15801561085257600080fd5b505af1158015610866573d6000803e3d6000fd5b50505050600194505050505095945050505050565b60008060009054906101000a900473ffffffffffffffffffffffffffffffffffffffff1673ffffffffffffffffffffffffffffffffffffffff163373ffffffffffffffffffffffffffffffffffffffff161461090c576040517f08c379a000000000000000000000000000000000000000000000000000000000815260040161090390611dfa565b60405180910390fd5b84600073ffffffffffffffffffffffffffffffffffffffff168173ffffffffffffffffffffffffffffffffffffffff16141561097d576040517f08c379a000000000000000000000000000000000000000000000000000000000815260040161097490611dda565b60405180910390fd5b84600073ffffffffffffffffffffffffffffffffffffffff168173ffffffffffffffffffffffffffffffffffffffff1614156109ee576040517f08c379a00000000000000000000000000000000000000000000000000000000081526004016109e590611dda565b60405180910390fd5b60008551116109fc57600080fd5b60008411610a0957600080fd5b600086905060005b8651811015610b7f57600073ffffffffffffffffffffffffffffffffffffffff16878281518110610a6b577f4e487b7100000000000000000000000000000000000000000000000000000000600052603260045260246000fd5b602002602001015173ffffffffffffffffffffffffffffffffffffffff161415610a9457600080fd5b8173ffffffffffffffffffffffffffffffffffffffff166323b872dd8a898481518110610aea577f4e487b7100000000000000000000000000000000000000000000000000000000600052603260045260246000fd5b6020026020010151896040518463ffffffff1660e01b8152600401610b1193929190611d07565b602060405180830381600087803b158015610b2b57600080fd5b505af1158015610b3f573d6000803e3d6000fd5b505050506040513d601f19601f82011682018060405250810190610b639190611ae4565b610b6c57600080fd5b8080610b7790611feb565b915050610a11565b5060019350505050949350505050565b60008060009054906101000a900473ffffffffffffffffffffffffffffffffffffffff1673ffffffffffffffffffffffffffffffffffffffff163373ffffffffffffffffffffffffffffffffffffffff1614610c20576040517f08c379a0000000000000000000000000000000000000000000000000000000008152600401610c1790611dfa565b60405180910390fd5b6000825111610c2e57600080fd5b6000825147610c3d9190611f2f565b905060005b8351811015610d5f57600073ffffffffffffffffffffffffffffffffffffffff16848281518110610c9c577f4e487b7100000000000000000000000000000000000000000000000000000000600052603260045260246000fd5b602002602001015173ffffffffffffffffffffffffffffffffffffffff161415610cc557600080fd5b838181518110610cfe577f4e487b7100000000000000000000000000000000000000000000000000000000600052603260045260246000fd5b602002602001015173ffffffffffffffffffffffffffffffffffffffff166108fc839081150290604051600060405180830381858888f19350505050158015610d4b573d6000803e3d6000fd5b508080610d5790611feb565b915050610c42565b506001915050919050565b60008054906101000a900473ffffffffffffffffffffffffffffffffffffffff1673ffffffffffffffffffffffffffffffffffffffff163373ffffffffffffffffffffffffffffffffffffffff1614610df8576040517f08c379a0000000000000000000000000000000000000000000000000000000008152600401610def90611dfa565b60405180910390fd5b3373ffffffffffffffffffffffffffffffffffffffff16ff5b60008060009054906101000a900473ffffffffffffffffffffffffffffffffffffffff1673ffffffffffffffffffffffffffffffffffffffff163373ffffffffffffffffffffffffffffffffffffffff1614610ea2576040517f08c379a0000000000000000000000000000000000000000000000000000000008152600401610e9990611dfa565b60405180910390fd5b84600073ffffffffffffffffffffffffffffffffffffffff168173ffffffffffffffffffffffffffffffffffffffff161415610f13576040517f08c379a0000000000000000000000000000000000000000000000000000000008152600401610f0a90611dda565b60405180910390fd5b6000845111610f2157600080fd5b6000835111610f2f57600080fd5b8351835114610f3d57600080fd5b6000606060005b86518110156111b957600073ffffffffffffffffffffffffffffffffffffffff16878281518110610f9e577f4e487b7100000000000000000000000000000000000000000000000000000000600052603260045260246000fd5b602002602001015173ffffffffffffffffffffffffffffffffffffffff161415610fc757600080fd5b6000868281518110611002577f4e487b7100000000000000000000000000000000000000000000000000000000600052603260045260246000fd5b60200260200101511161101457600080fd5b8773ffffffffffffffffffffffffffffffffffffffff1689888381518110611065577f4e487b7100000000000000000000000000000000000000000000000000000000600052603260045260246000fd5b60200260200101518884815181106110a6577f4e487b7100000000000000000000000000000000000000000000000000000000600052603260045260246000fd5b60200260200101516040516024016110c093929190611d07565b6040516020818303038152906040527f23b872dd000000000000000000000000000000000000000000000000000000007bffffffffffffffffffffffffffffffffffffffffffffffffffffffff19166020820180517bffffffffffffffffffffffffffffffffffffffffffffffffffffffff838183161783525050505060405161114a9190611c8a565b6000604051808303816000865af19150503d8060008114611187576040519150601f19603f3d011682016040523d82523d6000602084013e61118c565b606091505b50809350819450505060011515831515146111a657600080fd5b80806111b190611feb565b915050610f44565b5060019350505050949350505050565b600085600073ffffffffffffffffffffffffffffffffffffffff168173ffffffffffffffffffffffffffffffffffffffff16141561123c576040517f08c379a000000000000000000000000000000000000000000000000000000000815260040161123390611dda565b60405180910390fd5b85600073ffffffffffffffffffffffffffffffffffffffff168173ffffffffffffffffffffffffffffffffffffffff1614156112ad576040517f08c379a00000000000000000000000000000000000000000000000000000000081526004016112a490611dda565b60405180910390fd5b85600073ffffffffffffffffffffffffffffffffffffffff168173ffffffffffffffffffffffffffffffffffffffff16141561131e576040517f08c379a000000000000000000000000000000000000000000000000000000000815260040161131590611dda565b60405180910390fd5b60008890508073ffffffffffffffffffffffffffffffffffffffff1663f242432a8b8a8a8a6040518563ffffffff1660e01b81526004016113629493929190611d3e565b600060405180830381600087803b15801561137c57600080fd5b505af1158015611390573d6000803e3d6000fd5b50505050600194505050505095945050505050565b600047905090565b600084600073ffffffffffffffffffffffffffffffffffffffff168173ffffffffffffffffffffffffffffffffffffffff161415611420576040517f08c379a000000000000000000000000000000000000000000000000000000000815260040161141790611dda565b60405180910390fd5b84600073ffffffffffffffffffffffffffffffffffffffff168173ffffffffffffffffffffffffffffffffffffffff161415611491576040517f08c379a000000000000000000000000000000000000000000000000000000000815260040161148890611dda565b60405180910390fd5b84600073ffffffffffffffffffffffffffffffffffffffff168173ffffffffffffffffffffffffffffffffffffffff161415611502576040517f08c379a00000000000000000000000000000000000000000000000000000000081526004016114f990611dda565b60405180910390fd5b60008054906101000a900473ffffffffffffffffffffffffffffffffffffffff1673ffffffffffffffffffffffffffffffffffffffff163373ffffffffffffffffffffffffffffffffffffffff1614611590576040517f08c379a000000000000000000000000000000000000000000000000000000000815260040161158790611dfa565b60405180910390fd5b60008790508073ffffffffffffffffffffffffffffffffffffffff166342842e0e8a89896040518463ffffffff1660e01b81526004016115d293929190611d07565b600060405180830381600087803b1580156115ec57600080fd5b505af1158015611600573d6000803e3d6000fd5b505050506001945050505050949350505050565b600061162761162284611e66565b611e35565b9050808382526020820190508285602086028201111561164657600080fd5b60005b85811015611676578161165c88826116ec565b845260208401935060208301925050600181019050611649565b5050509392505050565b600061169361168e84611e92565b611e35565b905080838252602082019050828560208602820111156116b257600080fd5b60005b858110156116e257816116c8888261176a565b8452602084019350602083019250506001810190506116b5565b5050509392505050565b6000813590506116fb816120ee565b92915050565b600082601f83011261171257600080fd5b8135611722848260208601611614565b91505092915050565b600082601f83011261173c57600080fd5b813561174c848260208601611680565b91505092915050565b60008151905061176481612105565b92915050565b6000813590506117798161211c565b92915050565b60006020828403121561179157600080fd5b600061179f848285016116ec565b91505092915050565b600080600080600060a086880312156117c057600080fd5b60006117ce888289016116ec565b95505060206117df888289016116ec565b94505060406117f0888289016116ec565b935050606086013567ffffffffffffffff81111561180d57600080fd5b6118198882890161172b565b925050608086013567ffffffffffffffff81111561183657600080fd5b6118428882890161172b565b9150509295509295909350565b6000806000806080858703121561186557600080fd5b6000611873878288016116ec565b9450506020611884878288016116ec565b9350506040611895878288016116ec565b92505060606118a68782880161176a565b91505092959194509250565b600080600080600060a086880312156118ca57600080fd5b60006118d8888289016116ec565b95505060206118e9888289016116ec565b94505060406118fa888289016116ec565b935050606061190b8882890161176a565b925050608061191c8882890161176a565b9150509295509295909350565b6000806000806080858703121561193f57600080fd5b600061194d878288016116ec565b945050602061195e878288016116ec565b935050604085013567ffffffffffffffff81111561197b57600080fd5b61198787828801611701565b925050606085013567ffffffffffffffff8111156119a457600080fd5b6119b08782880161172b565b91505092959194509250565b600080600080608085870312156119d257600080fd5b60006119e0878288016116ec565b94505060206119f1878288016116ec565b935050604085013567ffffffffffffffff811115611a0e57600080fd5b611a1a87828801611701565b9250506060611a2b8782880161176a565b91505092959194509250565b600060208284031215611a4957600080fd5b600082013567ffffffffffffffff811115611a6357600080fd5b611a6f84828501611701565b91505092915050565b60008060408385031215611a8b57600080fd5b600083013567ffffffffffffffff811115611aa557600080fd5b611ab185828601611701565b925050602083013567ffffffffffffffff811115611ace57600080fd5b611ada8582860161172b565b9150509250929050565b600060208284031215611af657600080fd5b6000611b0484828501611755565b91505092915050565b6000611b198383611c6c565b60208301905092915050565b611b2e81611f60565b82525050565b6000611b3f82611ece565b611b498185611ef1565b9350611b5483611ebe565b8060005b83811015611b85578151611b6c8882611b0d565b9750611b7783611ee4565b925050600181019050611b58565b5085935050505092915050565b611b9b81611f72565b82525050565b6000611bac82611ed9565b611bb68185611f13565b9350611bc6818560208601611fb8565b80840191505092915050565b6000611bdf601083611f1e565b91507f61646472657373206973206572726f72000000000000000000000000000000006000830152602082019050919050565b6000611c1f601883611f1e565b91507f6f6e6c79206f776e65722063616e2063616c6c207468697300000000000000006000830152602082019050919050565b6000611c5f600083611f02565b9150600082019050919050565b611c7581611f9e565b82525050565b611c8481611f9e565b82525050565b6000611c968284611ba1565b915081905092915050565b600060a082019050611cb66000830187611b25565b611cc36020830186611b25565b8181036040830152611cd58185611b34565b90508181036060830152611ce98184611b34565b90508181036080830152611cfc81611c52565b905095945050505050565b6000606082019050611d1c6000830186611b25565b611d296020830185611b25565b611d366040830184611c7b565b949350505050565b600060a082019050611d536000830187611b25565b611d606020830186611b25565b611d6d6040830185611c7b565b611d7a6060830184611c7b565b8181036080830152611d8b81611c52565b905095945050505050565b6000604082019050611dab6000830185611b25565b611db86020830184611c7b565b9392505050565b6000602082019050611dd46000830184611b92565b92915050565b60006020820190508181036000830152611df381611bd2565b9050919050565b60006020820190508181036000830152611e1381611c12565b9050919050565b6000602082019050611e2f6000830184611c7b565b92915050565b6000604051905081810181811067ffffffffffffffff82111715611e5c57611e5b6120bf565b5b8060405250919050565b600067ffffffffffffffff821115611e8157611e806120bf565b5b602082029050602081019050919050565b600067ffffffffffffffff821115611ead57611eac6120bf565b5b602082029050602081019050919050565b6000819050602082019050919050565b600081519050919050565b600081519050919050565b6000602082019050919050565b600082825260208201905092915050565b600082825260208201905092915050565b600081905092915050565b600082825260208201905092915050565b6000611f3a82611f9e565b9150611f4583611f9e565b925082611f5557611f54612090565b5b828204905092915050565b6000611f6b82611f7e565b9050919050565b60008115159050919050565b600073ffffffffffffffffffffffffffffffffffffffff82169050919050565b6000819050919050565b600063ffffffff82169050919050565b60005b83811015611fd6578082015181840152602081019050611fbb565b83811115611fe5576000848401525b50505050565b6000611ff682611f9e565b91507fffffffffffffffffffffffffffffffffffffffffffffffffffffffffffffffff82141561202957612028612061565b5b600182019050919050565b600061203f82611fa8565b915063ffffffff82141561205657612055612061565b5b600182019050919050565b7f4e487b7100000000000000000000000000000000000000000000000000000000600052601160045260246000fd5b7f4e487b7100000000000000000000000000000000000000000000000000000000600052601260045260246000fd5b7f4e487b7100000000000000000000000000000000000000000000000000000000600052604160045260246000fd5b6120f781611f60565b811461210257600080fd5b50565b61210e81611f72565b811461211957600080fd5b50565b61212581611f9e565b811461213057600080fd5b5056fea26469706673582212202041d7fb31f626ad610f9a9eedc504f30b7eea6aa431ad01db28a742278a209564736f6c63430008000033",
  "linkReferences": {},
  "deployedLinkReferences": {}
}