{
  "_format": "hh-sol-artifact-1",
  "contractName": "Token",
  "sourceName": "contracts/Token.sol",
  "abi": [
    {
      "inputs": [
        {
          "internalType": "string",
          "name": "name",
          "type": "string"
        },
        {
          "internalType": "string",
          "name": "symbol",
          "type": "string"
        },
        {
          "internalType": "uint8",
          "name": "decimals",
          "type": "uint8"
        },
        {
          "internalType": "uint256",
          "name": "totalSupply",
          "type": "uint256"
        }
      ],
      "stateMutability": "payable",
      "type": "constructor"
    },
    {
      "anonymous": false,
      "inputs": [
        {
          "indexed": true,
          "internalType": "address",
          "name": "owner",
          "type": "address"
        },
        {
          "indexed": true,
          "internalType": "address",
          "name": "spender",
          "type": "address"
        },
        {
          "indexed": false,
          "internalType": "uint256",
          "name": "value",
          "type": "uint256"
        }
      ],
      "name": "Approval",
      "type": "event"
    },
    {
      "anonymous": false,
      "inputs": [
        {
          "indexed": true,
          "internalType": "address",
          "name": "from",
          "type": "address"
        },
        {
          "indexed": true,
          "internalType": "address",
          "name": "to",
          "type": "address"
        },
        {
          "indexed": false,
          "internalType": "uint256",
          "name": "value",
          "type": "uint256"
        }
      ],
      "name": "Transfer",
      "type": "event"
    },
    {
      "inputs": [
        {
          "internalType": "address",
          "name": "owner",
          "type": "address"
        },
        {
          "internalType": "address",
          "name": "spender",
          "type": "address"
        }
      ],
      "name": "allowance",
      "outputs": [
        {
          "internalType": "uint256",
          "name": "",
          "type": "uint256"
        }
      ],
      "stateMutability": "view",
      "type": "function"
    },
    {
      "inputs": [
        {
          "internalType": "address",
          "name": "spender",
          "type": "address"
        },
        {
          "internalType": "uint256",
          "name": "value",
          "type": "uint256"
        }
      ],
      "name": "approve",
      "outputs": [
        {
          "internalType": "bool",
          "name": "",
          "type": "bool"
        }
      ],
      "stateMutability": "nonpayable",
      "type": "function"
    },
    {
      "inputs": [
        {
          "internalType": "address",
          "name": "account",
          "type": "address"
        }
      ],
      "name": "balanceOf",
      "outputs": [
        {
          "internalType": "uint256",
          "name": "",
          "type": "uint256"
        }
      ],
      "stateMutability": "view",
      "type": "function"
    },
    {
      "inputs": [
        {
          "internalType": "uint256",
          "name": "value",
          "type": "uint256"
        }
      ],
      "name": "burn",
      "outputs": [],
      "stateMutability": "nonpayable",
      "type": "function"
    },
    {
      "inputs": [],
      "name": "decimals",
      "outputs": [
        {
          "internalType": "uint8",
          "name": "",
          "type": "uint8"
        }
      ],
      "stateMutability": "view",
      "type": "function"
    },
    {
      "inputs": [
        {
          "internalType": "address",
          "name": "spender",
          "type": "address"
        },
        {
          "internalType": "uint256",
          "name": "subtractedValue",
          "type": "uint256"
        }
      ],
      "name": "decreaseAllowance",
      "outputs": [
        {
          "internalType": "bool",
          "name": "",
          "type": "bool"
        }
      ],
      "stateMutability": "nonpayable",
      "type": "function"
    },
    {
      "inputs": [
        {
          "internalType": "address",
          "name": "spender",
          "type": "address"
        },
        {
          "internalType": "uint256",
          "name": "addedValue",
          "type": "uint256"
        }
      ],
      "name": "increaseAllowance",
      "outputs": [
        {
          "internalType": "bool",
          "name": "",
          "type": "bool"
        }
      ],
      "stateMutability": "nonpayable",
      "type": "function"
    },
    {
      "inputs": [],
      "name": "name",
      "outputs": [
        {
          "internalType": "string",
          "name": "",
          "type": "string"
        }
      ],
      "stateMutability": "view",
      "type": "function"
    },
    {
      "inputs": [],
      "name": "symbol",
      "outputs": [
        {
          "internalType": "string",
          "name": "",
          "type": "string"
        }
      ],
      "stateMutability": "view",
      "type": "function"
    },
    {
      "inputs": [],
      "name": "totalSupply",
      "outputs": [
        {
          "internalType": "uint256",
          "name": "",
          "type": "uint256"
        }
      ],
      "stateMutability": "view",
      "type": "function"
    },
    {
      "inputs": [
        {
          "internalType": "address",
          "name": "recipient",
          "type": "address"
        },
        {
          "internalType": "uint256",
          "name": "amount",
          "type": "uint256"
        }
      ],
      "name": "transfer",
      "outputs": [
        {
          "internalType": "bool",
          "name": "",
          "type": "bool"
        }
      ],
      "stateMutability": "nonpayable",
      "type": "function"
    },
    {
      "inputs": [
        {
          "internalType": "address",
          "name": "sender",
          "type": "address"
        },
        {
          "internalType": "address",
          "name": "recipient",
          "type": "address"
        },
        {
          "internalType": "uint256",
          "name": "amount",
          "type": "uint256"
        }
      ],
      "name": "transferFrom",
      "outputs": [
        {
          "internalType": "bool",
          "name": "",
          "type": "bool"
        }
      ],
      "stateMutability": "nonpayable",
      "type": "function"
    }
  ],
  "bytecode": "0x608060405260405162001cb138038062001cb18339818101604052810190620000299190620003e0565b83600390805190602001906200004192919062000290565b5082600490805190602001906200005a92919062000290565b5081600560006101000a81548160ff021916908360ff1602179055506200008833826200009260201b60201c565b505050506200078d565b600073ffffffffffffffffffffffffffffffffffffffff168273ffffffffffffffffffffffffffffffffffffffff16141562000105576040517f08c379a0000000000000000000000000000000000000000000000000000000008152600401620000fc9062000535565b60405180910390fd5b62000121816002546200022d60201b620006e71790919060201c565b6002819055506200017f816000808573ffffffffffffffffffffffffffffffffffffffff1673ffffffffffffffffffffffffffffffffffffffff168152602001908152602001600020546200022d60201b620006e71790919060201c565b6000808473ffffffffffffffffffffffffffffffffffffffff1673ffffffffffffffffffffffffffffffffffffffff168152602001908152602001600020819055508173ffffffffffffffffffffffffffffffffffffffff16600073ffffffffffffffffffffffffffffffffffffffff167fddf252ad1be2c89b69c2b068fc378daa952ba7f163c4a11628f55a4df523b3ef8360405162000221919062000557565b60405180910390a35050565b60008082846200023e9190620005ec565b90508381101562000286576040517f08c379a00000000000000000000000000000000000000000000000000000000081526004016200027d9062000513565b60405180910390fd5b8091505092915050565b8280546200029e9062000696565b90600052602060002090601f016020900481019282620002c257600085556200030e565b82601f10620002dd57805160ff19168380011785556200030e565b828001600101855582156200030e579182015b828111156200030d578251825591602001919060010190620002f0565b5b5090506200031d919062000321565b5090565b5b808211156200033c57600081600090555060010162000322565b5090565b6000620003576200035184620005a8565b62000574565b9050828152602081018484840111156200037057600080fd5b6200037d84828562000660565b509392505050565b600082601f8301126200039757600080fd5b8151620003a984826020860162000340565b91505092915050565b600081519050620003c38162000759565b92915050565b600081519050620003da8162000773565b92915050565b60008060008060808587031215620003f757600080fd5b600085015167ffffffffffffffff8111156200041257600080fd5b620004208782880162000385565b945050602085015167ffffffffffffffff8111156200043e57600080fd5b6200044c8782880162000385565b93505060406200045f87828801620003c9565b92505060606200047287828801620003b2565b91505092959194509250565b60006200048d601b83620005db565b91507f536166654d6174683a206164646974696f6e206f766572666c6f7700000000006000830152602082019050919050565b6000620004cf601f83620005db565b91507f45524332303a206d696e7420746f20746865207a65726f2061646472657373006000830152602082019050919050565b6200050d8162000649565b82525050565b600060208201905081810360008301526200052e816200047e565b9050919050565b600060208201905081810360008301526200055081620004c0565b9050919050565b60006020820190506200056e600083018462000502565b92915050565b6000604051905081810181811067ffffffffffffffff821117156200059e576200059d6200072a565b5b8060405250919050565b600067ffffffffffffffff821115620005c657620005c56200072a565b5b601f19601f8301169050602081019050919050565b600082825260208201905092915050565b6000620005f98262000649565b9150620006068362000649565b9250827fffffffffffffffffffffffffffffffffffffffffffffffffffffffffffffffff038211156200063e576200063d620006cc565b5b828201905092915050565b6000819050919050565b600060ff82169050919050565b60005b838110156200068057808201518184015260208101905062000663565b8381111562000690576000848401525b50505050565b60006002820490506001821680620006af57607f821691505b60208210811415620006c657620006c5620006fb565b5b50919050565b7f4e487b7100000000000000000000000000000000000000000000000000000000600052601160045260246000fd5b7f4e487b7100000000000000000000000000000000000000000000000000000000600052602260045260246000fd5b7f4e487b7100000000000000000000000000000000000000000000000000000000600052604160045260246000fd5b620007648162000649565b81146200077057600080fd5b50565b6200077e8162000653565b81146200078a57600080fd5b50565b611514806200079d6000396000f3fe608060405234801561001057600080fd5b50600436106100b45760003560e01c806342966c681161007157806342966c68146101a357806370a08231146101bf57806395d89b41146101ef578063a457c2d71461020d578063a9059cbb1461023d578063dd62ed3e1461026d576100b4565b806306fdde03146100b9578063095ea7b3146100d757806318160ddd1461010757806323b872dd14610125578063313ce567146101555780633950935114610173575b600080fd5b6100c161029d565b6040516100ce91906111a9565b60405180910390f35b6100f160048036038101906100ec9190610e45565b61032f565b6040516100fe919061118e565b60405180910390f35b61010f610346565b60405161011c91906112ab565b60405180910390f35b61013f600480360381019061013a9190610df6565b610350565b60405161014c919061118e565b60405180910390f35b61015d610401565b60405161016a91906112c6565b60405180910390f35b61018d60048036038101906101889190610e45565b610418565b60405161019a919061118e565b60405180910390f35b6101bd60048036038101906101b89190610e81565b6104bd565b005b6101d960048036038101906101d49190610d91565b6104ca565b6040516101e691906112ab565b60405180910390f35b6101f7610512565b60405161020491906111a9565b60405180910390f35b61022760048036038101906102229190610e45565b6105a4565b604051610234919061118e565b60405180910390f35b61025760048036038101906102529190610e45565b610649565b604051610264919061118e565b60405180910390f35b61028760048036038101906102829190610dba565b610660565b60405161029491906112ab565b60405180910390f35b6060600380546102ac9061140f565b80601f01602080910402602001604051908101604052809291908181526020018280546102d89061140f565b80156103255780601f106102fa57610100808354040283529160200191610325565b820191906000526020600020905b81548152906001019060200180831161030857829003601f168201915b5050505050905090565b600061033c338484610745565b6001905092915050565b6000600254905090565b600061035d848484610910565b6103f684336103f185600160008a73ffffffffffffffffffffffffffffffffffffffff1673ffffffffffffffffffffffffffffffffffffffff16815260200190815260200160002060003373ffffffffffffffffffffffffffffffffffffffff1673ffffffffffffffffffffffffffffffffffffffff16815260200190815260200160002054610b8090919063ffffffff16565b610745565b600190509392505050565b6000600560009054906101000a900460ff16905090565b60006104b333846104ae85600160003373ffffffffffffffffffffffffffffffffffffffff1673ffffffffffffffffffffffffffffffffffffffff16815260200190815260200160002060008973ffffffffffffffffffffffffffffffffffffffff1673ffffffffffffffffffffffffffffffffffffffff168152602001908152602001600020546106e790919063ffffffff16565b610745565b6001905092915050565b6104c73382610bdf565b50565b60008060008373ffffffffffffffffffffffffffffffffffffffff1673ffffffffffffffffffffffffffffffffffffffff168152602001908152602001600020549050919050565b6060600480546105219061140f565b80601f016020809104026020016040519081016040528092919081815260200182805461054d9061140f565b801561059a5780601f1061056f5761010080835404028352916020019161059a565b820191906000526020600020905b81548152906001019060200180831161057d57829003601f168201915b5050505050905090565b600061063f338461063a85600160003373ffffffffffffffffffffffffffffffffffffffff1673ffffffffffffffffffffffffffffffffffffffff16815260200190815260200160002060008973ffffffffffffffffffffffffffffffffffffffff1673ffffffffffffffffffffffffffffffffffffffff16815260200190815260200160002054610b8090919063ffffffff16565b610745565b6001905092915050565b6000610656338484610910565b6001905092915050565b6000600160008473ffffffffffffffffffffffffffffffffffffffff1673ffffffffffffffffffffffffffffffffffffffff16815260200190815260200160002060008373ffffffffffffffffffffffffffffffffffffffff1673ffffffffffffffffffffffffffffffffffffffff16815260200190815260200160002054905092915050565b60008082846106f691906112fd565b90508381101561073b576040517f08c379a00000000000000000000000000000000000000000000000000000000081526004016107329061120b565b60405180910390fd5b8091505092915050565b600073ffffffffffffffffffffffffffffffffffffffff168373ffffffffffffffffffffffffffffffffffffffff1614156107b5576040517f08c379a00000000000000000000000000000000000000000000000000000000081526004016107ac9061128b565b60405180910390fd5b600073ffffffffffffffffffffffffffffffffffffffff168273ffffffffffffffffffffffffffffffffffffffff161415610825576040517f08c379a000000000000000000000000000000000000000000000000000000000815260040161081c906111eb565b60405180910390fd5b80600160008573ffffffffffffffffffffffffffffffffffffffff1673ffffffffffffffffffffffffffffffffffffffff16815260200190815260200160002060008473ffffffffffffffffffffffffffffffffffffffff1673ffffffffffffffffffffffffffffffffffffffff168152602001908152602001600020819055508173ffffffffffffffffffffffffffffffffffffffff168373ffffffffffffffffffffffffffffffffffffffff167f8c5be1e5ebec7d5bd14f71427d1e84f3dd0314c0f7b2291e5b200ac8c7c3b9258360405161090391906112ab565b60405180910390a3505050565b600073ffffffffffffffffffffffffffffffffffffffff168373ffffffffffffffffffffffffffffffffffffffff161415610980576040517f08c379a00000000000000000000000000000000000000000000000000000000081526004016109779061126b565b60405180910390fd5b600073ffffffffffffffffffffffffffffffffffffffff168273ffffffffffffffffffffffffffffffffffffffff1614156109f0576040517f08c379a00000000000000000000000000000000000000000000000000000000081526004016109e7906111cb565b60405180910390fd5b610a41816000808673ffffffffffffffffffffffffffffffffffffffff1673ffffffffffffffffffffffffffffffffffffffff16815260200190815260200160002054610b8090919063ffffffff16565b6000808573ffffffffffffffffffffffffffffffffffffffff1673ffffffffffffffffffffffffffffffffffffffff16815260200190815260200160002081905550610ad4816000808573ffffffffffffffffffffffffffffffffffffffff1673ffffffffffffffffffffffffffffffffffffffff168152602001908152602001600020546106e790919063ffffffff16565b6000808473ffffffffffffffffffffffffffffffffffffffff1673ffffffffffffffffffffffffffffffffffffffff168152602001908152602001600020819055508173ffffffffffffffffffffffffffffffffffffffff168373ffffffffffffffffffffffffffffffffffffffff167fddf252ad1be2c89b69c2b068fc378daa952ba7f163c4a11628f55a4df523b3ef83604051610b7391906112ab565b60405180910390a3505050565b600082821115610bc5576040517f08c379a0000000000000000000000000000000000000000000000000000000008152600401610bbc9061122b565b60405180910390fd5b60008284610bd39190611353565b90508091505092915050565b600073ffffffffffffffffffffffffffffffffffffffff168273ffffffffffffffffffffffffffffffffffffffff161415610c4f576040517f08c379a0000000000000000000000000000000000000000000000000000000008152600401610c469061124b565b60405180910390fd5b610c6481600254610b8090919063ffffffff16565b600281905550610cbb816000808573ffffffffffffffffffffffffffffffffffffffff1673ffffffffffffffffffffffffffffffffffffffff16815260200190815260200160002054610b8090919063ffffffff16565b6000808473ffffffffffffffffffffffffffffffffffffffff1673ffffffffffffffffffffffffffffffffffffffff16815260200190815260200160002081905550600073ffffffffffffffffffffffffffffffffffffffff168273ffffffffffffffffffffffffffffffffffffffff167fddf252ad1be2c89b69c2b068fc378daa952ba7f163c4a11628f55a4df523b3ef83604051610d5b91906112ab565b60405180910390a35050565b600081359050610d76816114b0565b92915050565b600081359050610d8b816114c7565b92915050565b600060208284031215610da357600080fd5b6000610db184828501610d67565b91505092915050565b60008060408385031215610dcd57600080fd5b6000610ddb85828601610d67565b9250506020610dec85828601610d67565b9150509250929050565b600080600060608486031215610e0b57600080fd5b6000610e1986828701610d67565b9350506020610e2a86828701610d67565b9250506040610e3b86828701610d7c565b9150509250925092565b60008060408385031215610e5857600080fd5b6000610e6685828601610d67565b9250506020610e7785828601610d7c565b9150509250929050565b600060208284031215610e9357600080fd5b6000610ea184828501610d7c565b91505092915050565b610eb381611399565b82525050565b6000610ec4826112e1565b610ece81856112ec565b9350610ede8185602086016113dc565b610ee78161149f565b840191505092915050565b6000610eff6023836112ec565b91507f45524332303a207472616e7366657220746f20746865207a65726f206164647260008301527f65737300000000000000000000000000000000000000000000000000000000006020830152604082019050919050565b6000610f656022836112ec565b91507f45524332303a20617070726f766520746f20746865207a65726f20616464726560008301527f73730000000000000000000000000000000000000000000000000000000000006020830152604082019050919050565b6000610fcb601b836112ec565b91507f536166654d6174683a206164646974696f6e206f766572666c6f7700000000006000830152602082019050919050565b600061100b601e836112ec565b91507f536166654d6174683a207375627472616374696f6e206f766572666c6f7700006000830152602082019050919050565b600061104b6021836112ec565b91507f45524332303a206275726e2066726f6d20746865207a65726f2061646472657360008301527f73000000000000000000000000000000000000000000000000000000000000006020830152604082019050919050565b60006110b16025836112ec565b91507f45524332303a207472616e736665722066726f6d20746865207a65726f20616460008301527f64726573730000000000000000000000000000000000000000000000000000006020830152604082019050919050565b60006111176024836112ec565b91507f45524332303a20617070726f76652066726f6d20746865207a65726f2061646460008301527f72657373000000000000000000000000000000000000000000000000000000006020830152604082019050919050565b611179816113c5565b82525050565b611188816113cf565b82525050565b60006020820190506111a36000830184610eaa565b92915050565b600060208201905081810360008301526111c38184610eb9565b905092915050565b600060208201905081810360008301526111e481610ef2565b9050919050565b6000602082019050818103600083015261120481610f58565b9050919050565b6000602082019050818103600083015261122481610fbe565b9050919050565b6000602082019050818103600083015261124481610ffe565b9050919050565b600060208201905081810360008301526112648161103e565b9050919050565b60006020820190508181036000830152611284816110a4565b9050919050565b600060208201905081810360008301526112a48161110a565b9050919050565b60006020820190506112c06000830184611170565b92915050565b60006020820190506112db600083018461117f565b92915050565b600081519050919050565b600082825260208201905092915050565b6000611308826113c5565b9150611313836113c5565b9250827fffffffffffffffffffffffffffffffffffffffffffffffffffffffffffffffff0382111561134857611347611441565b5b828201905092915050565b600061135e826113c5565b9150611369836113c5565b92508282101561137c5761137b611441565b5b828203905092915050565b6000611392826113a5565b9050919050565b60008115159050919050565b600073ffffffffffffffffffffffffffffffffffffffff82169050919050565b6000819050919050565b600060ff82169050919050565b60005b838110156113fa5780820151818401526020810190506113df565b83811115611409576000848401525b50505050565b6000600282049050600182168061142757607f821691505b6020821081141561143b5761143a611470565b5b50919050565b7f4e487b7100000000000000000000000000000000000000000000000000000000600052601160045260246000fd5b7f4e487b7100000000000000000000000000000000000000000000000000000000600052602260045260246000fd5b6000601f19601f8301169050919050565b6114b981611387565b81146114c457600080fd5b50565b6114d0816113c5565b81146114db57600080fd5b5056fea2646970667358221220d154ec6c12df736537ab54afdc64ee7576a75ff2381939ff9fadd5232271e24964736f6c63430008000033",
  "linkReferences": {},
  "deployedLinkReferences": {}
}